{
  "contractName": "MetaCoin",
  "abi": [
    {
      "constant": true,
      "inputs": [],
      "name": "returnsArrayInt",
      "outputs": [
        {
          "name": "",
          "type": "uint256[]"
        }
      ],
      "payable": false,
      "stateMutability": "pure",
      "type": "function"
    },
    {
      "constant": true,
      "inputs": [
        {
          "name": "addr",
          "type": "address"
        },
        {
          "name": "num",
          "type": "uint256"
        }
      ],
      "name": "returns2",
      "outputs": [
        {
          "name": "",
          "type": "uint256"
        },
        {
          "name": "",
          "type": "bool"
        }
      ],
      "payable": false,
      "stateMutability": "view",
      "type": "function"
    },
    {
      "constant": true,
      "inputs": [],
      "name": "returns3",
      "outputs": [
        {
          "name": "",
          "type": "string"
        },
        {
          "name": "",
          "type": "bytes32"
        },
        {
          "name": "",
          "type": "uint256"
        }
      ],
      "payable": false,
      "stateMutability": "pure",
      "type": "function"
    },
    {
      "constant": true,
      "inputs": [],
      "name": "returnsSingleUint8",
      "outputs": [
        {
          "name": "",
          "type": "uint8"
        }
      ],
      "payable": false,
      "stateMutability": "pure",
      "type": "function"
    },
    {
      "constant": true,
      "inputs": [],
      "name": "source",
      "outputs": [
        {
          "name": "",
          "type": "string"
        }
      ],
      "payable": false,
      "stateMutability": "view",
      "type": "function"
    },
    {
      "constant": false,
      "inputs": [
        {
          "name": "addr",
          "type": "address"
        }
      ],
      "name": "getBalanceInEth",
      "outputs": [
        {
          "name": "",
          "type": "uint256"
        }
      ],
      "payable": false,
      "stateMutability": "nonpayable",
      "type": "function"
    },
    {
      "constant": false,
      "inputs": [
        {
          "name": "receiver",
          "type": "address"
        },
        {
          "name": "amount",
          "type": "uint256"
        }
      ],
      "name": "sendCoin",
      "outputs": [
        {
          "name": "sufficient",
          "type": "bool"
        }
      ],
      "payable": false,
      "stateMutability": "nonpayable",
      "type": "function"
    },
    {
      "constant": true,
      "inputs": [
        {
          "name": "addr",
          "type": "address"
        },
        {
          "name": "num",
          "type": "uint256"
        }
      ],
      "name": "returns2Bools",
      "outputs": [
        {
          "name": "",
          "type": "bool"
        },
        {
          "name": "",
          "type": "bool"
        }
      ],
      "payable": false,
      "stateMutability": "view",
      "type": "function"
    },
    {
      "constant": true,
      "inputs": [],
      "name": "candy",
      "outputs": [
        {
          "name": "",
          "type": "uint256"
        }
      ],
      "payable": false,
      "stateMutability": "view",
      "type": "function"
    },
    {
      "constant": true,
      "inputs": [
        {
          "name": "addr",
          "type": "address"
        }
      ],
      "name": "getBalance",
      "outputs": [
        {
          "name": "",
          "type": "uint256"
        }
      ],
      "payable": false,
      "stateMutability": "view",
      "type": "function"
    },
    {
      "inputs": [],
      "payable": false,
      "stateMutability": "nonpayable",
      "type": "constructor"
    },
    {
      "anonymous": false,
      "inputs": [
        {
          "indexed": true,
          "name": "_from",
          "type": "address"
        },
        {
          "indexed": true,
          "name": "_to",
          "type": "address"
        },
        {
          "indexed": false,
          "name": "_value",
          "type": "uint256"
        }
      ],
      "name": "Transfer",
      "type": "event"
    }
  ],
  "bytecode": "0x6060604052341561000f57600080fd5b6127106000803373ffffffffffffffffffffffffffffffffffffffff1673ffffffffffffffffffffffffffffffffffffffff1681526020019081526020016000208190555060066001819055506040805190810160405280600681526020017f736f757263650000000000000000000000000000000000000000000000000000815250600290805190602001906100a79291906100ad565b50610152565b828054600181600116156101000203166002900490600052602060002090601f016020900481019282601f106100ee57805160ff191683800117855561011c565b8280016001018555821561011c579182015b8281111561011b578251825591602001919060010190610100565b5b509050610129919061012d565b5090565b61014f91905b8082111561014b576000816000905550600101610133565b5090565b90565b6108d5806101616000396000f3006060604052600436106100a4576000357c0100000000000000000000000000000000000000000000000000000000900463ffffffff16806325b18944146100a95780632dbfe88b1461011357806332231ab11461017457806339032a821461021857806367e828bf146102475780637bd703e8146102d557806390b98a111461032257806395c15ad01461037c578063f616ce3c146103e1578063f8b2cb4f1461040a575b600080fd5b34156100b457600080fd5b6100bc610457565b6040518080602001828103825283818151815260200191508051906020019060200280838360005b838110156100ff5780820151818401526020810190506100e4565b505050509050019250505060405180910390f35b341561011e57600080fd5b610153600480803573ffffffffffffffffffffffffffffffffffffffff169060200190919080359060200190919050506104ce565b60405180838152602001821515151581526020019250505060405180910390f35b341561017f57600080fd5b61018761051d565b60405180806020018460001916600019168152602001838152602001828103825285818151815260200191508051906020019080838360005b838110156101db5780820151818401526020810190506101c0565b50505050905090810190601f1680156102085780820380516001836020036101000a031916815260200191505b5094505050505060405180910390f35b341561022357600080fd5b61022b610579565b604051808260ff1660ff16815260200191505060405180910390f35b341561025257600080fd5b61025a610582565b6040518080602001828103825283818151815260200191508051906020019080838360005b8381101561029a57808201518184015260208101905061027f565b50505050905090810190601f1680156102c75780820380516001836020036101000a031916815260200191505b509250505060405180910390f35b34156102e057600080fd5b61030c600480803573ffffffffffffffffffffffffffffffffffffffff16906020019091905050610620565b6040518082815260200191505060405180910390f35b341561032d57600080fd5b610362600480803573ffffffffffffffffffffffffffffffffffffffff169060200190919080359060200190919050506106c8565b604051808215151515815260200191505060405180910390f35b341561038757600080fd5b6103bc600480803573ffffffffffffffffffffffffffffffffffffffff16906020019091908035906020019091905050610821565b6040518083151515158152602001821515151581526020019250505060405180910390f35b34156103ec57600080fd5b6103f4610833565b6040518082815260200191505060405180910390f35b341561041557600080fd5b610441600480803573ffffffffffffffffffffffffffffffffffffffff16906020019091905050610839565b6040518082815260200191505060405180910390f35b61045f610881565b610467610881565b60026040518059106104765750595b90808252806020026020018201604052509050600281600081518110151561049a57fe5b906020019060200201818152505060058160018151811015156104b957fe5b90602001906020020181815250508091505090565b6000806000808573ffffffffffffffffffffffffffffffffffffffff1673ffffffffffffffffffffffffffffffffffffffff168152602001908152602001600020546001915091509250929050565b610525610895565b60008060116102586040805190810160405280600381526020017f68657900000000000000000000000000000000000000000000000000000000008152509190816001029150809050925092509250909192565b6000600b905090565b60028054600181600116156101000203166002900480601f0160208091040260200160405190810160405280929190818152602001828054600181600116156101000203166002900480156106185780601f106105ed57610100808354040283529160200191610618565b820191906000526020600020905b8154815290600101906020018083116105fb57829003601f168201915b505050505081565b600073__ConvertLib____________________________6396e4ee3d61064584610839565b60026000604051602001526040518363ffffffff167c0100000000000000000000000000000000000000000000000000000000028152600401808381526020018281526020019250505060206040518083038186803b15156106a657600080fd5b6102c65a03f415156106b757600080fd5b505050604051805190509050919050565b6000816000803373ffffffffffffffffffffffffffffffffffffffff1673ffffffffffffffffffffffffffffffffffffffff168152602001908152602001600020541015610719576000905061081b565b816000803373ffffffffffffffffffffffffffffffffffffffff1673ffffffffffffffffffffffffffffffffffffffff16815260200190815260200160002060008282540392505081905550816000808573ffffffffffffffffffffffffffffffffffffffff1673ffffffffffffffffffffffffffffffffffffffff168152602001908152602001600020600082825401925050819055508273ffffffffffffffffffffffffffffffffffffffff163373ffffffffffffffffffffffffffffffffffffffff167fddf252ad1be2c89b69c2b068fc378daa952ba7f163c4a11628f55a4df523b3ef846040518082815260200191505060405180910390a3600190505b92915050565b60008060006001915091509250929050565b60015481565b60008060008373ffffffffffffffffffffffffffffffffffffffff1673ffffffffffffffffffffffffffffffffffffffff168152602001908152602001600020549050919050565b602060405190810160405280600081525090565b6020604051908101604052806000815250905600a165627a7a72305820402accc3d79edc5b2c18d459fbf5e7ea1b6bc765164a3067550706f81ada421a0029",
  "source": "pragma solidity ^0.4.18;\n\nimport \"./ConvertLib.sol\";\n\n// This is just a simple example of a coin-like contract.\n// It is not standards compatible and cannot be expected to talk to other\n// coin/token contracts. If you want to create a standards-compliant\n// token, see: https://github.com/ConsenSys/Tokens. Cheers!\n\ncontract MetaCoin {\n  mapping (address => uint) balances;\n  uint public candy;\n  string public source;\n\n  event Transfer(address indexed _from, address indexed _to, uint256 _value);\n\n  function MetaCoin() public {\n    balances[msg.sender] = 10000;\n    candy = 6;\n    source = \"source\";\n  }\n\n  function sendCoin(address receiver, uint amount) public returns(bool sufficient) {\n    if (balances[msg.sender] < amount) return false;\n    balances[msg.sender] -= amount;\n    balances[receiver] += amount;\n    Transfer(msg.sender, receiver, amount);\n    return true;\n  }\n\n  function getBalanceInEth(address addr) public returns(uint) {\n    return ConvertLib.convert(getBalance(addr), 2);\n  }\n\n  function getBalance(address addr) public view returns(uint) {\n    return balances[addr];\n  }\n\n  function returns2(address addr, uint num) public view returns(uint, bool) {\n    return (balances[addr], true);\n  }\n\n  function returns2Bools(address addr, uint num) public view returns(bool, bool) {\n    return (false, true);\n  }\n\n  function returns3() public pure returns (string, bytes32, uint256) {\n    return (\"hey\", 0x11, 600);\n  }\n\n  function returnsSingleUint8() public pure returns (uint8) {\n    return 11;\n  }\n\n  function returnsArrayInt() public pure returns (uint[]) {\n    uint[] memory tmp = new uint[](2);\n    tmp[0] = 2;\n    tmp[1] = 5;\n    return tmp;\n  }\n\n}\n",
  "sourcePath": "/Users/angellopozo/Documents/graphql/Solidity-to-GraphQL/contracts/MetaCoin.sol",
  "compiler": {
    "name": "solc",
    "version": "0.4.18+commit.9cf6e910.Emscripten.clang"
  },
  "schemaVersion": "1.0.1",
  "updatedAt": "2018-07-02T22:40:55.096Z"
}