{
  "contractName": "MetaCoin",
  "abi": [
    {
      "constant": true,
      "inputs": [],
      "name": "returnsEnum",
      "outputs": [
        {
          "name": "",
          "type": "int256"
        }
      ],
      "payable": false,
      "stateMutability": "view",
      "type": "function"
    },
    {
      "constant": true,
      "inputs": [],
      "name": "returnsArrayInt",
      "outputs": [
        {
          "name": "",
          "type": "uint256[]"
        }
      ],
      "payable": false,
      "stateMutability": "pure",
      "type": "function"
    },
    {
      "constant": true,
      "inputs": [
        {
          "name": "addr",
          "type": "address"
        },
        {
          "name": "num",
          "type": "uint256"
        }
      ],
      "name": "returns2",
      "outputs": [
        {
          "name": "",
          "type": "uint256"
        },
        {
          "name": "",
          "type": "bool"
        }
      ],
      "payable": false,
      "stateMutability": "view",
      "type": "function"
    },
    {
      "constant": true,
      "inputs": [],
      "name": "returns3",
      "outputs": [
        {
          "name": "",
          "type": "string"
        },
        {
          "name": "",
          "type": "bytes32"
        },
        {
          "name": "",
          "type": "uint256"
        }
      ],
      "payable": false,
      "stateMutability": "pure",
      "type": "function"
    },
    {
      "constant": true,
      "inputs": [],
      "name": "returnsSingleUint8",
      "outputs": [
        {
          "name": "",
          "type": "uint8"
        }
      ],
      "payable": false,
      "stateMutability": "pure",
      "type": "function"
    },
    {
      "constant": true,
      "inputs": [],
      "name": "returnsMixedNamedInt",
      "outputs": [
        {
          "name": "num",
          "type": "uint16"
        },
        {
          "name": "",
          "type": "uint32"
        }
      ],
      "payable": false,
      "stateMutability": "pure",
      "type": "function"
    },
    {
      "constant": true,
      "inputs": [],
      "name": "returnsNamedInt",
      "outputs": [
        {
          "name": "tweleve",
          "type": "uint32"
        }
      ],
      "payable": false,
      "stateMutability": "pure",
      "type": "function"
    },
    {
      "constant": true,
      "inputs": [],
      "name": "returnsaddress",
      "outputs": [
        {
          "name": "",
          "type": "address"
        }
      ],
      "payable": false,
      "stateMutability": "view",
      "type": "function"
    },
    {
      "constant": true,
      "inputs": [],
      "name": "source",
      "outputs": [
        {
          "name": "",
          "type": "string"
        }
      ],
      "payable": false,
      "stateMutability": "view",
      "type": "function"
    },
    {
      "constant": false,
      "inputs": [
        {
          "name": "addr",
          "type": "address"
        }
      ],
      "name": "getBalanceInEth",
      "outputs": [
        {
          "name": "",
          "type": "uint256"
        }
      ],
      "payable": false,
      "stateMutability": "nonpayable",
      "type": "function"
    },
    {
      "constant": true,
      "inputs": [],
      "name": "returnsArrayAddresses",
      "outputs": [
        {
          "name": "",
          "type": "address[]"
        }
      ],
      "payable": false,
      "stateMutability": "pure",
      "type": "function"
    },
    {
      "constant": false,
      "inputs": [
        {
          "name": "receiver",
          "type": "address"
        },
        {
          "name": "amount",
          "type": "uint256"
        }
      ],
      "name": "sendCoin",
      "outputs": [
        {
          "name": "sufficient",
          "type": "bool"
        }
      ],
      "payable": false,
      "stateMutability": "nonpayable",
      "type": "function"
    },
    {
      "constant": true,
      "inputs": [
        {
          "name": "addr",
          "type": "address"
        },
        {
          "name": "num",
          "type": "uint256"
        }
      ],
      "name": "returns2Bools",
      "outputs": [
        {
          "name": "",
          "type": "bool"
        },
        {
          "name": "",
          "type": "bool"
        }
      ],
      "payable": false,
      "stateMutability": "view",
      "type": "function"
    },
    {
      "constant": true,
      "inputs": [],
      "name": "candy",
      "outputs": [
        {
          "name": "",
          "type": "uint256"
        }
      ],
      "payable": false,
      "stateMutability": "view",
      "type": "function"
    },
    {
      "constant": true,
      "inputs": [
        {
          "name": "addr",
          "type": "address"
        }
      ],
      "name": "getBalance",
      "outputs": [
        {
          "name": "",
          "type": "uint256"
        }
      ],
      "payable": false,
      "stateMutability": "view",
      "type": "function"
    },
    {
      "inputs": [],
      "payable": false,
      "stateMutability": "nonpayable",
      "type": "constructor"
    },
    {
      "anonymous": false,
      "inputs": [
        {
          "indexed": true,
          "name": "_from",
          "type": "address"
        },
        {
          "indexed": true,
          "name": "_to",
          "type": "address"
        },
        {
          "indexed": false,
          "name": "_value",
          "type": "uint256"
        }
      ],
      "name": "Transfer",
      "type": "event"
    }
  ],
  "bytecode": "0x6060604052341561000f57600080fd5b612710600160003373ffffffffffffffffffffffffffffffffffffffff1673ffffffffffffffffffffffffffffffffffffffff1681526020019081526020016000208190555060066002819055506040805190810160405280600681526020017f736f757263650000000000000000000000000000000000000000000000000000815250600390805190602001906100a89291906100ef565b5033600460006101000a81548173ffffffffffffffffffffffffffffffffffffffff021916908373ffffffffffffffffffffffffffffffffffffffff160217905550610194565b828054600181600116156101000203166002900490600052602060002090601f016020900481019282601f1061013057805160ff191683800117855561015e565b8280016001018555821561015e579182015b8281111561015d578251825591602001919060010190610142565b5b50905061016b919061016f565b5090565b61019191905b8082111561018d576000816000905550600101610175565b5090565b90565b610c01806101a36000396000f3006060604052600436106100db576000357c0100000000000000000000000000000000000000000000000000000000900463ffffffff1680631e132cec146100e057806325b18944146101095780632dbfe88b1461017357806332231ab1146101d457806339032a82146102785780634211aa26146102a75780634cf4b837146102eb578063543978981461032057806367e828bf146103755780637bd703e8146104035780638dce4c871461045057806390b98a11146104ba57806395c15ad014610514578063f616ce3c14610579578063f8b2cb4f146105a2575b600080fd5b34156100eb57600080fd5b6100f36105ef565b6040518082815260200191505060405180910390f35b341561011457600080fd5b61011c610602565b6040518080602001828103825283818151815260200191508051906020019060200280838360005b8381101561015f578082015181840152602081019050610144565b505050509050019250505060405180910390f35b341561017e57600080fd5b6101b3600480803573ffffffffffffffffffffffffffffffffffffffff16906020019091908035906020019091905050610679565b60405180838152602001821515151581526020019250505060405180910390f35b34156101df57600080fd5b6101e76106c9565b60405180806020018460001916600019168152602001838152602001828103825285818151815260200191508051906020019080838360005b8381101561023b578082015181840152602081019050610220565b50505050905090810190601f1680156102685780820380516001836020036101000a031916815260200191505b5094505050505060405180910390f35b341561028357600080fd5b61028b610725565b604051808260ff1660ff16815260200191505060405180910390f35b34156102b257600080fd5b6102ba61072e565b604051808361ffff1661ffff1681526020018263ffffffff1663ffffffff1681526020019250505060405180910390f35b34156102f657600080fd5b6102fe610743565b604051808263ffffffff1663ffffffff16815260200191505060405180910390f35b341561032b57600080fd5b61033361074c565b604051808273ffffffffffffffffffffffffffffffffffffffff1673ffffffffffffffffffffffffffffffffffffffff16815260200191505060405180910390f35b341561038057600080fd5b610388610776565b6040518080602001828103825283818151815260200191508051906020019080838360005b838110156103c85780820151818401526020810190506103ad565b50505050905090810190601f1680156103f55780820380516001836020036101000a031916815260200191505b509250505060405180910390f35b341561040e57600080fd5b61043a600480803573ffffffffffffffffffffffffffffffffffffffff16906020019091905050610814565b6040518082815260200191505060405180910390f35b341561045b57600080fd5b6104636108bc565b6040518080602001828103825283818151815260200191508051906020019060200280838360005b838110156104a657808201518184015260208101905061048b565b505050509050019250505060405180910390f35b34156104c557600080fd5b6104fa600480803573ffffffffffffffffffffffffffffffffffffffff169060200190919080359060200190919050506109dc565b604051808215151515815260200191505060405180910390f35b341561051f57600080fd5b610554600480803573ffffffffffffffffffffffffffffffffffffffff16906020019091908035906020019091905050610b38565b6040518083151515158152602001821515151581526020019250505060405180910390f35b341561058457600080fd5b61058c610b4a565b6040518082815260200191505060405180910390f35b34156105ad57600080fd5b6105d9600480803573ffffffffffffffffffffffffffffffffffffffff16906020019091905050610b50565b6040518082815260200191505060405180910390f35b60006003808111156105fd57fe5b905090565b61060a610b99565b610612610b99565b60026040518059106106215750595b90808252806020026020018201604052509050600281600081518110151561064557fe5b9060200190602002018181525050600581600181518110151561066457fe5b90602001906020020181815250508091505090565b600080600160008573ffffffffffffffffffffffffffffffffffffffff1673ffffffffffffffffffffffffffffffffffffffff168152602001908152602001600020546001915091509250929050565b6106d1610bad565b60008060116102586040805190810160405280600381526020017f68657900000000000000000000000000000000000000000000000000000000008152509190816001029150809050925092509250909192565b6000600b905090565b600080600d915081600e809050915091509091565b6000600c905090565b6000600460009054906101000a900473ffffffffffffffffffffffffffffffffffffffff16905090565b60038054600181600116156101000203166002900480601f01602080910402602001604051908101604052809291908181526020018280546001816001161561010002031660029004801561080c5780601f106107e15761010080835404028352916020019161080c565b820191906000526020600020905b8154815290600101906020018083116107ef57829003601f168201915b505050505081565b600073__ConvertLib____________________________6396e4ee3d61083984610b50565b60026000604051602001526040518363ffffffff167c0100000000000000000000000000000000000000000000000000000000028152600401808381526020018281526020019250505060206040518083038186803b151561089a57600080fd5b6102c65a03f415156108ab57600080fd5b505050604051805190509050919050565b6108c4610bc1565b6108cc610bc1565b60036040518059106108db5750595b9080825280602002602001820160405250905060048160008151811015156108ff57fe5b9060200190602002019073ffffffffffffffffffffffffffffffffffffffff16908173ffffffffffffffffffffffffffffffffffffffff1681525050600781600181518110151561094c57fe5b9060200190602002019073ffffffffffffffffffffffffffffffffffffffff16908173ffffffffffffffffffffffffffffffffffffffff1681525050600981600281518110151561099957fe5b9060200190602002019073ffffffffffffffffffffffffffffffffffffffff16908173ffffffffffffffffffffffffffffffffffffffff16815250508091505090565b600081600160003373ffffffffffffffffffffffffffffffffffffffff1673ffffffffffffffffffffffffffffffffffffffff168152602001908152602001600020541015610a2e5760009050610b32565b81600160003373ffffffffffffffffffffffffffffffffffffffff1673ffffffffffffffffffffffffffffffffffffffff1681526020019081526020016000206000828254039250508190555081600160008573ffffffffffffffffffffffffffffffffffffffff1673ffffffffffffffffffffffffffffffffffffffff168152602001908152602001600020600082825401925050819055508273ffffffffffffffffffffffffffffffffffffffff163373ffffffffffffffffffffffffffffffffffffffff167fddf252ad1be2c89b69c2b068fc378daa952ba7f163c4a11628f55a4df523b3ef846040518082815260200191505060405180910390a3600190505b92915050565b60008060006001915091509250929050565b60025481565b6000600160008373ffffffffffffffffffffffffffffffffffffffff1673ffffffffffffffffffffffffffffffffffffffff168152602001908152602001600020549050919050565b602060405190810160405280600081525090565b602060405190810160405280600081525090565b6020604051908101604052806000815250905600a165627a7a72305820c5b82677f2b06d940e297e05bce5c46aeee45d152115322bc6587e8e685944610029",
  "source": "pragma solidity ^0.4.18;\n\nimport \"./ConvertLib.sol\";\n\n// This is just a simple example of a coin-like contract.\n// It is not standards compatible and cannot be expected to talk to other\n// coin/token contracts. If you want to create a standards-compliant\n// token, see: https://github.com/ConsenSys/Tokens. Cheers!\n\ncontract MetaCoin {\n  enum EnumChoice { zero, first, second, third }\n  EnumChoice ec; \n  mapping (address => uint) balances;\n  uint public candy;\n  string public source;\n  address owner;\n\n  event Transfer(address indexed _from, address indexed _to, uint256 _value);\n\n  function MetaCoin() public {\n    balances[msg.sender] = 10000;\n    candy = 6;\n    source = \"source\";\n    owner = msg.sender;\n  }\n\n  function sendCoin(address receiver, uint amount) public returns(bool sufficient) {\n    if (balances[msg.sender] < amount) return false;\n    balances[msg.sender] -= amount;\n    balances[receiver] += amount;\n    Transfer(msg.sender, receiver, amount);\n    return true;\n  }\n\n  function getBalanceInEth(address addr) public returns(uint) {\n    return ConvertLib.convert(getBalance(addr), 2);\n  }\n\n  function getBalance(address addr) public view returns(uint) {\n    return balances[addr];\n  }\n\n  function returns2(address addr, uint num) public view returns(uint, bool) {\n    return (balances[addr], true);\n  }\n\n  function returns2Bools(address addr, uint num) public view returns(bool, bool) {\n    return (false, true);\n  }\n\n  function returns3() public pure returns (string, bytes32, uint256) {\n    return (\"hey\", 0x11, 600);\n  }\n\n  function returnsSingleUint8() public pure returns (uint8) {\n    return 11;\n  }\n\n  function returnsArrayInt() public pure returns (uint[]) {\n    uint[] memory tmp = new uint[](2);\n    tmp[0] = 2;\n    tmp[1] = 5;\n    return tmp;\n  }\n\n  function returnsArrayAddresses() public pure returns(address[]) {\n    address[] memory tmp = new address[](3);\n    tmp[0] = 0x04;\n    tmp[1] = 0x07;\n    tmp[2] = 0x09;\n    return tmp;\n  }\n\n\n  function returnsNamedInt() public pure returns(uint32 tweleve) {\n    tweleve = 12;\n  }\n\n  function returnsMixedNamedInt() public pure returns(uint16 num, uint32) {\n    num = 13;\n    return (num, 14);\n  }\n\n  function returnsaddress() public view returns(address) {\n    return owner;\n  }\n\n  function returnsEnum() public view returns(int) {\n    return int(EnumChoice.third);\n  }\n\n\n}\n",
  "sourcePath": "/Users/angellopozo/Documents/graphql/Solidity-to-GraphQL/contracts/MetaCoin.sol",
  "compiler": {
    "name": "solc",
    "version": "0.4.18+commit.9cf6e910.Emscripten.clang"
  },
  "schemaVersion": "1.0.1",
  "updatedAt": "2018-07-14T18:41:53.720Z"
}