{
  "contractName": "MetaCoin",
  "abi": [
    {
      "constant": true,
      "inputs": [],
      "name": "returnsArrayBytes",
      "outputs": [
        {
          "name": "",
          "type": "bytes32[]"
        }
      ],
      "payable": false,
      "stateMutability": "pure",
      "type": "function"
    },
    {
      "constant": true,
      "inputs": [],
      "name": "returnsEnum",
      "outputs": [
        {
          "name": "",
          "type": "int256"
        }
      ],
      "payable": false,
      "stateMutability": "view",
      "type": "function"
    },
    {
      "constant": true,
      "inputs": [],
      "name": "returnsArrayInt",
      "outputs": [
        {
          "name": "",
          "type": "uint256[]"
        }
      ],
      "payable": false,
      "stateMutability": "pure",
      "type": "function"
    },
    {
      "constant": true,
      "inputs": [
        {
          "name": "addr",
          "type": "address"
        },
        {
          "name": "num",
          "type": "uint256"
        }
      ],
      "name": "returns2",
      "outputs": [
        {
          "name": "",
          "type": "uint256"
        },
        {
          "name": "",
          "type": "bool"
        }
      ],
      "payable": false,
      "stateMutability": "view",
      "type": "function"
    },
    {
      "constant": true,
      "inputs": [],
      "name": "returns3",
      "outputs": [
        {
          "name": "",
          "type": "string"
        },
        {
          "name": "",
          "type": "bytes32"
        },
        {
          "name": "",
          "type": "uint256"
        }
      ],
      "payable": false,
      "stateMutability": "pure",
      "type": "function"
    },
    {
      "constant": true,
      "inputs": [],
      "name": "returnsSingleUint8",
      "outputs": [
        {
          "name": "",
          "type": "uint8"
        }
      ],
      "payable": false,
      "stateMutability": "pure",
      "type": "function"
    },
    {
      "constant": true,
      "inputs": [],
      "name": "returnsMixedNamedInt",
      "outputs": [
        {
          "name": "num",
          "type": "uint16"
        },
        {
          "name": "",
          "type": "uint32"
        }
      ],
      "payable": false,
      "stateMutability": "pure",
      "type": "function"
    },
    {
      "constant": true,
      "inputs": [],
      "name": "returnsSingleByte32",
      "outputs": [
        {
          "name": "",
          "type": "bytes32"
        }
      ],
      "payable": false,
      "stateMutability": "pure",
      "type": "function"
    },
    {
      "constant": true,
      "inputs": [],
      "name": "returnsNamedInt",
      "outputs": [
        {
          "name": "tweleve",
          "type": "uint32"
        }
      ],
      "payable": false,
      "stateMutability": "pure",
      "type": "function"
    },
    {
      "constant": true,
      "inputs": [],
      "name": "returnsaddress",
      "outputs": [
        {
          "name": "",
          "type": "address"
        }
      ],
      "payable": false,
      "stateMutability": "view",
      "type": "function"
    },
    {
      "constant": true,
      "inputs": [],
      "name": "source",
      "outputs": [
        {
          "name": "",
          "type": "string"
        }
      ],
      "payable": false,
      "stateMutability": "view",
      "type": "function"
    },
    {
      "constant": false,
      "inputs": [
        {
          "name": "addr",
          "type": "address"
        }
      ],
      "name": "getBalanceInEth",
      "outputs": [
        {
          "name": "",
          "type": "uint256"
        }
      ],
      "payable": false,
      "stateMutability": "nonpayable",
      "type": "function"
    },
    {
      "constant": true,
      "inputs": [],
      "name": "returnsArrayAddresses",
      "outputs": [
        {
          "name": "",
          "type": "address[]"
        }
      ],
      "payable": false,
      "stateMutability": "pure",
      "type": "function"
    },
    {
      "constant": false,
      "inputs": [
        {
          "name": "receiver",
          "type": "address"
        },
        {
          "name": "amount",
          "type": "uint256"
        }
      ],
      "name": "sendCoin",
      "outputs": [
        {
          "name": "sufficient",
          "type": "bool"
        }
      ],
      "payable": false,
      "stateMutability": "nonpayable",
      "type": "function"
    },
    {
      "constant": true,
      "inputs": [
        {
          "name": "addr",
          "type": "address"
        },
        {
          "name": "num",
          "type": "uint256"
        }
      ],
      "name": "returns2Bools",
      "outputs": [
        {
          "name": "",
          "type": "bool"
        },
        {
          "name": "",
          "type": "bool"
        }
      ],
      "payable": false,
      "stateMutability": "view",
      "type": "function"
    },
    {
      "constant": true,
      "inputs": [],
      "name": "returnsOnlyArrays",
      "outputs": [
        {
          "name": "",
          "type": "int256[]"
        },
        {
          "name": "",
          "type": "address[]"
        },
        {
          "name": "",
          "type": "bytes32[]"
        }
      ],
      "payable": false,
      "stateMutability": "view",
      "type": "function"
    },
    {
      "constant": true,
      "inputs": [],
      "name": "candy",
      "outputs": [
        {
          "name": "",
          "type": "uint256"
        }
      ],
      "payable": false,
      "stateMutability": "view",
      "type": "function"
    },
    {
      "constant": true,
      "inputs": [
        {
          "name": "addr",
          "type": "address"
        }
      ],
      "name": "getBalance",
      "outputs": [
        {
          "name": "",
          "type": "uint256"
        }
      ],
      "payable": false,
      "stateMutability": "view",
      "type": "function"
    },
    {
      "inputs": [],
      "payable": false,
      "stateMutability": "nonpayable",
      "type": "constructor"
    },
    {
      "anonymous": false,
      "inputs": [
        {
          "indexed": true,
          "name": "_from",
          "type": "address"
        },
        {
          "indexed": true,
          "name": "_to",
          "type": "address"
        },
        {
          "indexed": false,
          "name": "_value",
          "type": "uint256"
        }
      ],
      "name": "Transfer",
      "type": "event"
    }
  ],
  "bytecode": "0x606060405234156200001057600080fd5b612710600160003373ffffffffffffffffffffffffffffffffffffffff1673ffffffffffffffffffffffffffffffffffffffff1681526020019081526020016000208190555060066002819055506040805190810160405280600681526020017f736f75726365000000000000000000000000000000000000000000000000000081525060039080519060200190620000ab929190620000f3565b5033600460006101000a81548173ffffffffffffffffffffffffffffffffffffffff021916908373ffffffffffffffffffffffffffffffffffffffff160217905550620001a2565b828054600181600116156101000203166002900490600052602060002090601f016020900481019282601f106200013657805160ff191683800117855562000167565b8280016001018555821562000167579182015b828111156200016657825182559160200191906001019062000149565b5b5090506200017691906200017a565b5090565b6200019f91905b808211156200019b57600081600090555060010162000181565b5090565b90565b6111db80620001b26000396000f3006060604052600436106100fc576000357c0100000000000000000000000000000000000000000000000000000000900463ffffffff1680631925824e146101015780631e132cec1461016b57806325b18944146101945780632dbfe88b146101fe57806332231ab11461025f57806339032a82146103035780634211aa26146103325780634b18592c146103765780634cf4b837146103a757806354397898146103dc57806367e828bf146104315780637bd703e8146104bf5780638dce4c871461050c57806390b98a111461057657806395c15ad0146105d0578063e3d8bc9c14610635578063f616ce3c1461072f578063f8b2cb4f14610758575b600080fd5b341561010c57600080fd5b6101146107a5565b6040518080602001828103825283818151815260200191508051906020019060200280838360005b8381101561015757808201518184015260208101905061013c565b505050509050019250505060405180910390f35b341561017657600080fd5b61017e6108b6565b6040518082815260200191505060405180910390f35b341561019f57600080fd5b6101a76108c9565b6040518080602001828103825283818151815260200191508051906020019060200280838360005b838110156101ea5780820151818401526020810190506101cf565b505050509050019250505060405180910390f35b341561020957600080fd5b61023e600480803573ffffffffffffffffffffffffffffffffffffffff16906020019091908035906020019091905050610940565b60405180838152602001821515151581526020019250505060405180910390f35b341561026a57600080fd5b610272610990565b60405180806020018460001916600019168152602001838152602001828103825285818151815260200191508051906020019080838360005b838110156102c65780820151818401526020810190506102ab565b50505050905090810190601f1680156102f35780820380516001836020036101000a031916815260200191505b5094505050505060405180910390f35b341561030e57600080fd5b6103166109ec565b604051808260ff1660ff16815260200191505060405180910390f35b341561033d57600080fd5b6103456109f5565b604051808361ffff1661ffff1681526020018263ffffffff1663ffffffff1681526020019250505060405180910390f35b341561038157600080fd5b610389610a0a565b60405180826000191660001916815260200191505060405180910390f35b34156103b257600080fd5b6103ba610a32565b604051808263ffffffff1663ffffffff16815260200191505060405180910390f35b34156103e757600080fd5b6103ef610a3b565b604051808273ffffffffffffffffffffffffffffffffffffffff1673ffffffffffffffffffffffffffffffffffffffff16815260200191505060405180910390f35b341561043c57600080fd5b610444610a65565b6040518080602001828103825283818151815260200191508051906020019080838360005b83811015610484578082015181840152602081019050610469565b50505050905090810190601f1680156104b15780820380516001836020036101000a031916815260200191505b509250505060405180910390f35b34156104ca57600080fd5b6104f6600480803573ffffffffffffffffffffffffffffffffffffffff16906020019091905050610b03565b6040518082815260200191505060405180910390f35b341561051757600080fd5b61051f610bab565b6040518080602001828103825283818151815260200191508051906020019060200280838360005b83811015610562578082015181840152602081019050610547565b505050509050019250505060405180910390f35b341561058157600080fd5b6105b6600480803573ffffffffffffffffffffffffffffffffffffffff16906020019091908035906020019091905050610ccb565b604051808215151515815260200191505060405180910390f35b34156105db57600080fd5b610610600480803573ffffffffffffffffffffffffffffffffffffffff16906020019091908035906020019091905050610e27565b6040518083151515158152602001821515151581526020019250505060405180910390f35b341561064057600080fd5b610648610e39565b60405180806020018060200180602001848103845287818151815260200191508051906020019060200280838360005b83811015610693578082015181840152602081019050610678565b50505050905001848103835286818151815260200191508051906020019060200280838360005b838110156106d55780820151818401526020810190506106ba565b50505050905001848103825285818151815260200191508051906020019060200280838360005b838110156107175780820151818401526020810190506106fc565b50505050905001965050505050505060405180910390f35b341561073a57600080fd5b6107426110fc565b6040518082815260200191505060405180910390f35b341561076357600080fd5b61078f600480803573ffffffffffffffffffffffffffffffffffffffff16906020019091905050611102565b6040518082815260200191505060405180910390f35b6107ad61114b565b6107b561114b565b60036040518059106107c45750595b908082528060200260200182016040525090507f756e6f000000000000000000000000000000000000000000000000000000000081600081518110151561080757fe5b9060200190602002019060001916908160001916815250507f646f73000000000000000000000000000000000000000000000000000000000081600181518110151561084f57fe5b9060200190602002019060001916908160001916815250507f747265730000000000000000000000000000000000000000000000000000000081600281518110151561089757fe5b9060200190602002019060001916908160001916815250508091505090565b60006003808111156108c457fe5b905090565b6108d161115f565b6108d961115f565b60026040518059106108e85750595b90808252806020026020018201604052509050600281600081518110151561090c57fe5b9060200190602002018181525050600581600181518110151561092b57fe5b90602001906020020181815250508091505090565b600080600160008573ffffffffffffffffffffffffffffffffffffffff1673ffffffffffffffffffffffffffffffffffffffff168152602001908152602001600020546001915091509250929050565b610998611173565b60008060116102586040805190810160405280600381526020017f68657900000000000000000000000000000000000000000000000000000000008152509190816001029150809050925092509250909192565b6000600b905090565b600080600d915081600e809050915091509091565b60007f68656c6c6f000000000000000000000000000000000000000000000000000000905090565b6000600c905090565b6000600460009054906101000a900473ffffffffffffffffffffffffffffffffffffffff16905090565b60038054600181600116156101000203166002900480601f016020809104026020016040519081016040528092919081815260200182805460018160011615610100020316600290048015610afb5780601f10610ad057610100808354040283529160200191610afb565b820191906000526020600020905b815481529060010190602001808311610ade57829003601f168201915b505050505081565b600073__ConvertLib____________________________6396e4ee3d610b2884611102565b60026000604051602001526040518363ffffffff167c0100000000000000000000000000000000000000000000000000000000028152600401808381526020018281526020019250505060206040518083038186803b1515610b8957600080fd5b6102c65a03f41515610b9a57600080fd5b505050604051805190509050919050565b610bb3611187565b610bbb611187565b6003604051805910610bca5750595b908082528060200260200182016040525090506004816000815181101515610bee57fe5b9060200190602002019073ffffffffffffffffffffffffffffffffffffffff16908173ffffffffffffffffffffffffffffffffffffffff16815250506007816001815181101515610c3b57fe5b9060200190602002019073ffffffffffffffffffffffffffffffffffffffff16908173ffffffffffffffffffffffffffffffffffffffff16815250506009816002815181101515610c8857fe5b9060200190602002019073ffffffffffffffffffffffffffffffffffffffff16908173ffffffffffffffffffffffffffffffffffffffff16815250508091505090565b600081600160003373ffffffffffffffffffffffffffffffffffffffff1673ffffffffffffffffffffffffffffffffffffffff168152602001908152602001600020541015610d1d5760009050610e21565b81600160003373ffffffffffffffffffffffffffffffffffffffff1673ffffffffffffffffffffffffffffffffffffffff1681526020019081526020016000206000828254039250508190555081600160008573ffffffffffffffffffffffffffffffffffffffff1673ffffffffffffffffffffffffffffffffffffffff168152602001908152602001600020600082825401925050819055508273ffffffffffffffffffffffffffffffffffffffff163373ffffffffffffffffffffffffffffffffffffffff167fddf252ad1be2c89b69c2b068fc378daa952ba7f163c4a11628f55a4df523b3ef846040518082815260200191505060405180910390a3600190505b92915050565b60008060006001915091509250929050565b610e4161119b565b610e49611187565b610e5161114b565b610e5961119b565b610e61611187565b610e6961114b565b6003604051805910610e785750595b908082528060200260200182016040525092506002836000815181101515610e9c57fe5b90602001906020020181815250506005836001815181101515610ebb57fe5b90602001906020020181815250506008836002815181101515610eda57fe5b90602001906020020181815250506003604051805910610ef75750595b908082528060200260200182016040525091506004826000815181101515610f1b57fe5b9060200190602002019073ffffffffffffffffffffffffffffffffffffffff16908173ffffffffffffffffffffffffffffffffffffffff16815250506007826001815181101515610f6857fe5b9060200190602002019073ffffffffffffffffffffffffffffffffffffffff16908173ffffffffffffffffffffffffffffffffffffffff16815250506009826002815181101515610fb557fe5b9060200190602002019073ffffffffffffffffffffffffffffffffffffffff16908173ffffffffffffffffffffffffffffffffffffffff168152505060036040518059106110005750595b908082528060200260200182016040525090507f756e6f000000000000000000000000000000000000000000000000000000000081600081518110151561104357fe5b9060200190602002019060001916908160001916815250507f646f73000000000000000000000000000000000000000000000000000000000081600181518110151561108b57fe5b9060200190602002019060001916908160001916815250507f74726573000000000000000000000000000000000000000000000000000000008160028151811015156110d357fe5b906020019060200201906000191690816000191681525050828282955095509550505050909192565b60025481565b6000600160008373ffffffffffffffffffffffffffffffffffffffff1673ffffffffffffffffffffffffffffffffffffffff168152602001908152602001600020549050919050565b602060405190810160405280600081525090565b602060405190810160405280600081525090565b602060405190810160405280600081525090565b602060405190810160405280600081525090565b6020604051908101604052806000815250905600a165627a7a72305820ab81cb440c5f8f09c2e3d8cfc51a65c91c11d88ac0850dd01e4f0bc60fe79ac60029",
  "source": "pragma solidity ^0.4.18;\n\nimport \"./ConvertLib.sol\";\n\n// This is just a simple example of a coin-like contract.\n// It is not standards compatible and cannot be expected to talk to other\n// coin/token contracts. If you want to create a standards-compliant\n// token, see: https://github.com/ConsenSys/Tokens. Cheers!\n\ncontract MetaCoin {\n  enum EnumChoice { zero, first, second, third }\n  EnumChoice ec; \n  mapping (address => uint) balances;\n  uint public candy;\n  string public source;\n  address owner;\n\n  event Transfer(address indexed _from, address indexed _to, uint256 _value);\n\n  function MetaCoin() public {\n    balances[msg.sender] = 10000;\n    candy = 6;\n    source = \"source\";\n    owner = msg.sender;\n  }\n\n  function sendCoin(address receiver, uint amount) public returns(bool sufficient) {\n    if (balances[msg.sender] < amount) return false;\n    balances[msg.sender] -= amount;\n    balances[receiver] += amount;\n    Transfer(msg.sender, receiver, amount);\n    return true;\n  }\n\n  function getBalanceInEth(address addr) public returns(uint) {\n    return ConvertLib.convert(getBalance(addr), 2);\n  }\n\n  function getBalance(address addr) public view returns(uint) {\n    return balances[addr];\n  }\n\n  function returns2(address addr, uint num) public view returns(uint, bool) {\n    return (balances[addr], true);\n  }\n\n  function returns2Bools(address addr, uint num) public view returns(bool, bool) {\n    return (false, true);\n  }\n\n  function returns3() public pure returns (string, bytes32, uint256) {\n    return (\"hey\", 0x11, 600);\n  }\n\n  function returnsSingleUint8() public pure returns (uint8) {\n    return 11;\n  }\n\n  function returnsSingleByte32() public pure returns (bytes32) {\n    return 'hello';\n  }\n\n  function returnsArrayInt() public pure returns (uint[]) {\n    uint[] memory tmp = new uint[](2);\n    tmp[0] = 2;\n    tmp[1] = 5;\n    return tmp;\n  }\n\n  function returnsArrayAddresses() public pure returns(address[]) {\n    address[] memory tmp = new address[](3);\n    tmp[0] = 0x04;\n    tmp[1] = 0x07;\n    tmp[2] = 0x09;\n    return tmp;\n  }\n\n  function returnsArrayBytes() public pure returns(bytes32[]) {\n    bytes32[] memory tmp = new bytes32[](3);\n    tmp[0] = \"uno\";\n    tmp[1] = \"dos\";\n    tmp[2] = \"tres\";\n    return tmp;\n  }\n\n  function returnsNamedInt() public pure returns(uint32 tweleve) {\n    tweleve = 12;\n  }\n\n  function returnsMixedNamedInt() public pure returns(uint16 num, uint32) {\n    num = 13;\n    return (num, 14);\n  }\n\n  function returnsaddress() public view returns(address) {\n    return owner;\n  }\n\n  function returnsEnum() public view returns(int) {\n    return int(EnumChoice.third);\n  }\n\n  function returnsOnlyArrays() public view returns(int[], address[], bytes32[]) {\n    int[] memory tmp1 = new int[](3);\n    tmp1[0] = 2;\n    tmp1[1] = 5;\n    tmp1[2] = 8;\n\n    address[] memory tmp2 = new address[](3);\n    tmp2[0] = 0x04;\n    tmp2[1] = 0x07;\n    tmp2[2] = 0x09;\n\n    bytes32[] memory tmp3 = new bytes32[](3);\n    tmp3[0] = \"uno\";\n    tmp3[1] = \"dos\";\n    tmp3[2] = \"tres\";\n\n    return (tmp1, tmp2, tmp3);\n  }\n\n\n}\n",
  "sourcePath": "/Users/angellopozo/Documents/graphql/Solidity-to-GraphQL/contracts/MetaCoin.sol",
  "compiler": {
    "name": "solc",
    "version": "0.4.18+commit.9cf6e910.Emscripten.clang"
  },
  "schemaVersion": "1.0.1",
  "updatedAt": "2018-07-14T21:12:09.580Z"
}